{
	"9Array.sol": {
		"Array": {
			"abi": [
				{
					"constant": true,
					"inputs": [
						{
							"name": "",
							"type": "uint256"
						}
					],
					"name": "myArray",
					"outputs": [
						{
							"name": "",
							"type": "uint256"
						}
					],
					"payable": false,
					"stateMutability": "view",
					"type": "function"
				}
			],
			"devdoc": {
				"methods": {}
			},
			"evm": {
				"assembly": "    /* \"9Array.sol\":96:157  contract Array{\r... */\n  mstore(0x40, 0x80)\n    /* \"9Array.sol\":117:153  uint[4] public myArray=[10,20,30,40] */\n  0x80\n  mload(0x40)\n  swap1\n  dup2\n  add\n  0x40\n  mstore\n  dup1\n    /* \"9Array.sol\":141:143  10 */\n  0xa\n    /* \"9Array.sol\":117:153  uint[4] public myArray=[10,20,30,40] */\n  0xff\n  and\n  dup2\n  mstore\n  0x20\n  add\n    /* \"9Array.sol\":144:146  20 */\n  0x14\n    /* \"9Array.sol\":117:153  uint[4] public myArray=[10,20,30,40] */\n  0xff\n  and\n  dup2\n  mstore\n  0x20\n  add\n    /* \"9Array.sol\":147:149  30 */\n  0x1e\n    /* \"9Array.sol\":117:153  uint[4] public myArray=[10,20,30,40] */\n  0xff\n  and\n  dup2\n  mstore\n  0x20\n  add\n    /* \"9Array.sol\":150:152  40 */\n  0x28\n    /* \"9Array.sol\":117:153  uint[4] public myArray=[10,20,30,40] */\n  0xff\n  and\n  dup2\n  mstore\n  pop\n  0x0\n  swap1\n  0x4\n  tag_1\n  swap3\n  swap2\n  swap1\n  jump\t// in(tag_2)\ntag_1:\n  pop\n    /* \"9Array.sol\":96:157  contract Array{\r... */\n  callvalue\n    /* \"--CODEGEN--\":8:17   */\n  dup1\n    /* \"--CODEGEN--\":5:7   */\n  iszero\n  tag_3\n  jumpi\n    /* \"--CODEGEN--\":30:31   */\n  0x0\n    /* \"--CODEGEN--\":27:28   */\n  dup1\n    /* \"--CODEGEN--\":20:32   */\n  revert\n    /* \"--CODEGEN--\":5:7   */\ntag_3:\n    /* \"9Array.sol\":96:157  contract Array{\r... */\n  pop\n  jump(tag_4)\ntag_2:\n  dup3\n  0x4\n  dup2\n  add\n  swap3\n  dup3\n  iszero\n  tag_5\n  jumpi\n  swap2\n  0x20\n  mul\n  dup3\n  add\ntag_6:\n  dup3\n  dup2\n  gt\n  iszero\n  tag_7\n  jumpi\n  dup3\n  mload\n  dup3\n  swap1\n  0xff\n  and\n  swap1\n  sstore\n  swap2\n  0x20\n  add\n  swap2\n  swap1\n  0x1\n  add\n  swap1\n  jump(tag_6)\ntag_7:\ntag_5:\n  pop\n  swap1\n  pop\n  tag_8\n  swap2\n  swap1\n  jump\t// in(tag_9)\ntag_8:\n  pop\n  swap1\n  jump\t// out\ntag_9:\n  tag_10\n  swap2\n  swap1\ntag_11:\n  dup1\n  dup3\n  gt\n  iszero\n  tag_12\n  jumpi\n  0x0\n  dup2\n  0x0\n  swap1\n  sstore\n  pop\n  0x1\n  add\n  jump(tag_11)\ntag_12:\n  pop\n  swap1\n  jump\ntag_10:\n  swap1\n  jump\t// out\ntag_4:\n  dataSize(sub_0)\n  dup1\n  dataOffset(sub_0)\n  0x0\n  codecopy\n  0x0\n  return\nstop\n\nsub_0: assembly {\n        /* \"9Array.sol\":96:157  contract Array{\r... */\n      mstore(0x40, 0x80)\n      jumpi(tag_1, lt(calldatasize, 0x4))\n      calldataload(0x0)\n      0x100000000000000000000000000000000000000000000000000000000\n      swap1\n      div\n      0xffffffff\n      and\n      dup1\n      0xcc3e57d9\n      eq\n      tag_2\n      jumpi\n    tag_1:\n      0x0\n      dup1\n      revert\n        /* \"9Array.sol\":117:153  uint[4] public myArray=[10,20,30,40] */\n    tag_2:\n      callvalue\n        /* \"--CODEGEN--\":8:17   */\n      dup1\n        /* \"--CODEGEN--\":5:7   */\n      iszero\n      tag_3\n      jumpi\n        /* \"--CODEGEN--\":30:31   */\n      0x0\n        /* \"--CODEGEN--\":27:28   */\n      dup1\n        /* \"--CODEGEN--\":20:32   */\n      revert\n        /* \"--CODEGEN--\":5:7   */\n    tag_3:\n        /* \"9Array.sol\":117:153  uint[4] public myArray=[10,20,30,40] */\n      pop\n      tag_4\n      0x4\n      dup1\n      calldatasize\n      sub\n        /* \"--CODEGEN--\":13:15   */\n      0x20\n        /* \"--CODEGEN--\":8:11   */\n      dup2\n        /* \"--CODEGEN--\":5:16   */\n      lt\n        /* \"--CODEGEN--\":2:4   */\n      iszero\n      tag_5\n      jumpi\n        /* \"--CODEGEN--\":29:30   */\n      0x0\n        /* \"--CODEGEN--\":26:27   */\n      dup1\n        /* \"--CODEGEN--\":19:31   */\n      revert\n        /* \"--CODEGEN--\":2:4   */\n    tag_5:\n        /* \"9Array.sol\":117:153  uint[4] public myArray=[10,20,30,40] */\n      dup2\n      add\n      swap1\n      dup1\n      dup1\n      calldataload\n      swap1\n      0x20\n      add\n      swap1\n      swap3\n      swap2\n      swap1\n      pop\n      pop\n      pop\n      jump(tag_6)\n    tag_4:\n      mload(0x40)\n      dup1\n      dup3\n      dup2\n      mstore\n      0x20\n      add\n      swap2\n      pop\n      pop\n      mload(0x40)\n      dup1\n      swap2\n      sub\n      swap1\n      return\n    tag_6:\n      0x0\n      dup2\n      0x4\n      dup2\n      lt\n      iszero\n      iszero\n      tag_7\n      jumpi\n      invalid\n    tag_7:\n      add\n      0x0\n      swap2\n      pop\n      swap1\n      pop\n      sload\n      dup2\n      jump\t// out\n\n    auxdata: 0xa165627a7a72305820b39ad1b5e80cfbfc5436092badd3a43f1156c9f44d3ad37913de84d73aa3ce040029\n}\n",
				"bytecode": {
					"linkReferences": {},
					"object": "6080604052608060405190810160405280600a60ff168152602001601460ff168152602001601e60ff168152602001602860ff168152506000906004610046929190610059565b5034801561005357600080fd5b506100c3565b826004810192821561008d579160200282015b8281111561008c578251829060ff1690559160200191906001019061006c565b5b50905061009a919061009e565b5090565b6100c091905b808211156100bc5760008160009055506001016100a4565b5090565b90565b60d4806100d16000396000f3fe608060405260043610603f576000357c0100000000000000000000000000000000000000000000000000000000900463ffffffff168063cc3e57d9146044575b600080fd5b348015604f57600080fd5b50607960048036036020811015606457600080fd5b8101908080359060200190929190505050608f565b6040518082815260200191505060405180910390f35b600081600481101515609d57fe5b01600091509050548156fea165627a7a72305820b39ad1b5e80cfbfc5436092badd3a43f1156c9f44d3ad37913de84d73aa3ce040029",
					"opcodes": "PUSH1 0x80 PUSH1 0x40 MSTORE PUSH1 0x80 PUSH1 0x40 MLOAD SWAP1 DUP2 ADD PUSH1 0x40 MSTORE DUP1 PUSH1 0xA PUSH1 0xFF AND DUP2 MSTORE PUSH1 0x20 ADD PUSH1 0x14 PUSH1 0xFF AND DUP2 MSTORE PUSH1 0x20 ADD PUSH1 0x1E PUSH1 0xFF AND DUP2 MSTORE PUSH1 0x20 ADD PUSH1 0x28 PUSH1 0xFF AND DUP2 MSTORE POP PUSH1 0x0 SWAP1 PUSH1 0x4 PUSH2 0x46 SWAP3 SWAP2 SWAP1 PUSH2 0x59 JUMP JUMPDEST POP CALLVALUE DUP1 ISZERO PUSH2 0x53 JUMPI PUSH1 0x0 DUP1 REVERT JUMPDEST POP PUSH2 0xC3 JUMP JUMPDEST DUP3 PUSH1 0x4 DUP2 ADD SWAP3 DUP3 ISZERO PUSH2 0x8D JUMPI SWAP2 PUSH1 0x20 MUL DUP3 ADD JUMPDEST DUP3 DUP2 GT ISZERO PUSH2 0x8C JUMPI DUP3 MLOAD DUP3 SWAP1 PUSH1 0xFF AND SWAP1 SSTORE SWAP2 PUSH1 0x20 ADD SWAP2 SWAP1 PUSH1 0x1 ADD SWAP1 PUSH2 0x6C JUMP JUMPDEST JUMPDEST POP SWAP1 POP PUSH2 0x9A SWAP2 SWAP1 PUSH2 0x9E JUMP JUMPDEST POP SWAP1 JUMP JUMPDEST PUSH2 0xC0 SWAP2 SWAP1 JUMPDEST DUP1 DUP3 GT ISZERO PUSH2 0xBC JUMPI PUSH1 0x0 DUP2 PUSH1 0x0 SWAP1 SSTORE POP PUSH1 0x1 ADD PUSH2 0xA4 JUMP JUMPDEST POP SWAP1 JUMP JUMPDEST SWAP1 JUMP JUMPDEST PUSH1 0xD4 DUP1 PUSH2 0xD1 PUSH1 0x0 CODECOPY PUSH1 0x0 RETURN INVALID PUSH1 0x80 PUSH1 0x40 MSTORE PUSH1 0x4 CALLDATASIZE LT PUSH1 0x3F JUMPI PUSH1 0x0 CALLDATALOAD PUSH29 0x100000000000000000000000000000000000000000000000000000000 SWAP1 DIV PUSH4 0xFFFFFFFF AND DUP1 PUSH4 0xCC3E57D9 EQ PUSH1 0x44 JUMPI JUMPDEST PUSH1 0x0 DUP1 REVERT JUMPDEST CALLVALUE DUP1 ISZERO PUSH1 0x4F JUMPI PUSH1 0x0 DUP1 REVERT JUMPDEST POP PUSH1 0x79 PUSH1 0x4 DUP1 CALLDATASIZE SUB PUSH1 0x20 DUP2 LT ISZERO PUSH1 0x64 JUMPI PUSH1 0x0 DUP1 REVERT JUMPDEST DUP2 ADD SWAP1 DUP1 DUP1 CALLDATALOAD SWAP1 PUSH1 0x20 ADD SWAP1 SWAP3 SWAP2 SWAP1 POP POP POP PUSH1 0x8F JUMP JUMPDEST PUSH1 0x40 MLOAD DUP1 DUP3 DUP2 MSTORE PUSH1 0x20 ADD SWAP2 POP POP PUSH1 0x40 MLOAD DUP1 SWAP2 SUB SWAP1 RETURN JUMPDEST PUSH1 0x0 DUP2 PUSH1 0x4 DUP2 LT ISZERO ISZERO PUSH1 0x9D JUMPI INVALID JUMPDEST ADD PUSH1 0x0 SWAP2 POP SWAP1 POP SLOAD DUP2 JUMP INVALID LOG1 PUSH6 0x627A7A723058 KECCAK256 0xb3 SWAP11 0xd1 0xb5 0xe8 0xc 0xfb 0xfc SLOAD CALLDATASIZE MULMOD 0x2b 0xad 0xd3 LOG4 EXTCODEHASH GT JUMP 0xc9 DELEGATECALL 0x4d GASPRICE 0xd3 PUSH26 0x13DE84D73AA3CE04002900000000000000000000000000000000 "
				},
				"gasEstimates": {
					"creation": {
						"codeDepositCost": "42400",
						"executionCost": "infinite",
						"totalCost": "infinite"
					},
					"external": {
						"myArray(uint256)": "524"
					}
				},
				"methodIdentifiers": {
					"myArray(uint256)": "cc3e57d9"
				}
			},
			"userdoc": {
				"methods": {}
			}
		}
	}
}