{
	"9Array.sol": {
		"Array": {
			"abi": [
				{
					"constant": false,
					"inputs": [
						{
							"name": "index",
							"type": "uint256"
						},
						{
							"name": "value",
							"type": "uint256"
						}
					],
					"name": "setter",
					"outputs": [],
					"payable": false,
					"stateMutability": "nonpayable",
					"type": "function"
				},
				{
					"constant": true,
					"inputs": [
						{
							"name": "",
							"type": "uint256"
						}
					],
					"name": "myArray",
					"outputs": [
						{
							"name": "",
							"type": "uint256"
						}
					],
					"payable": false,
					"stateMutability": "view",
					"type": "function"
				}
			],
			"devdoc": {
				"methods": {}
			},
			"evm": {
				"assembly": "    /* \"9Array.sol\":444:598  contract Array{\r... */\n  mstore(0x40, 0x80)\n    /* \"9Array.sol\":465:502  uint [4] public myArray=[10,20,30,40] */\n  0x80\n  mload(0x40)\n  swap1\n  dup2\n  add\n  0x40\n  mstore\n  dup1\n    /* \"9Array.sol\":490:492  10 */\n  0xa\n    /* \"9Array.sol\":465:502  uint [4] public myArray=[10,20,30,40] */\n  0xff\n  and\n  dup2\n  mstore\n  0x20\n  add\n    /* \"9Array.sol\":493:495  20 */\n  0x14\n    /* \"9Array.sol\":465:502  uint [4] public myArray=[10,20,30,40] */\n  0xff\n  and\n  dup2\n  mstore\n  0x20\n  add\n    /* \"9Array.sol\":496:498  30 */\n  0x1e\n    /* \"9Array.sol\":465:502  uint [4] public myArray=[10,20,30,40] */\n  0xff\n  and\n  dup2\n  mstore\n  0x20\n  add\n    /* \"9Array.sol\":499:501  40 */\n  0x28\n    /* \"9Array.sol\":465:502  uint [4] public myArray=[10,20,30,40] */\n  0xff\n  and\n  dup2\n  mstore\n  pop\n  0x0\n  swap1\n  0x4\n  tag_1\n  swap3\n  swap2\n  swap1\n  jump\t// in(tag_2)\ntag_1:\n  pop\n    /* \"9Array.sol\":444:598  contract Array{\r... */\n  callvalue\n    /* \"--CODEGEN--\":8:17   */\n  dup1\n    /* \"--CODEGEN--\":5:7   */\n  iszero\n  tag_3\n  jumpi\n    /* \"--CODEGEN--\":30:31   */\n  0x0\n    /* \"--CODEGEN--\":27:28   */\n  dup1\n    /* \"--CODEGEN--\":20:32   */\n  revert\n    /* \"--CODEGEN--\":5:7   */\ntag_3:\n    /* \"9Array.sol\":444:598  contract Array{\r... */\n  pop\n  jump(tag_4)\ntag_2:\n  dup3\n  0x4\n  dup2\n  add\n  swap3\n  dup3\n  iszero\n  tag_5\n  jumpi\n  swap2\n  0x20\n  mul\n  dup3\n  add\ntag_6:\n  dup3\n  dup2\n  gt\n  iszero\n  tag_7\n  jumpi\n  dup3\n  mload\n  dup3\n  swap1\n  0xff\n  and\n  swap1\n  sstore\n  swap2\n  0x20\n  add\n  swap2\n  swap1\n  0x1\n  add\n  swap1\n  jump(tag_6)\ntag_7:\ntag_5:\n  pop\n  swap1\n  pop\n  tag_8\n  swap2\n  swap1\n  jump\t// in(tag_9)\ntag_8:\n  pop\n  swap1\n  jump\t// out\ntag_9:\n  tag_10\n  swap2\n  swap1\ntag_11:\n  dup1\n  dup3\n  gt\n  iszero\n  tag_12\n  jumpi\n  0x0\n  dup2\n  0x0\n  swap1\n  sstore\n  pop\n  0x1\n  add\n  jump(tag_11)\ntag_12:\n  pop\n  swap1\n  jump\ntag_10:\n  swap1\n  jump\t// out\ntag_4:\n  dataSize(sub_0)\n  dup1\n  dataOffset(sub_0)\n  0x0\n  codecopy\n  0x0\n  return\nstop\n\nsub_0: assembly {\n        /* \"9Array.sol\":444:598  contract Array{\r... */\n      mstore(0x40, 0x80)\n      jumpi(tag_1, lt(calldatasize, 0x4))\n      calldataload(0x0)\n      0x100000000000000000000000000000000000000000000000000000000\n      swap1\n      div\n      0xffffffff\n      and\n      dup1\n      0x5298f36d\n      eq\n      tag_2\n      jumpi\n      dup1\n      0xcc3e57d9\n      eq\n      tag_3\n      jumpi\n    tag_1:\n      0x0\n      dup1\n      revert\n        /* \"9Array.sol\":511:595  function setter(uint index,uint value) public{\r... */\n    tag_2:\n      callvalue\n        /* \"--CODEGEN--\":8:17   */\n      dup1\n        /* \"--CODEGEN--\":5:7   */\n      iszero\n      tag_4\n      jumpi\n        /* \"--CODEGEN--\":30:31   */\n      0x0\n        /* \"--CODEGEN--\":27:28   */\n      dup1\n        /* \"--CODEGEN--\":20:32   */\n      revert\n        /* \"--CODEGEN--\":5:7   */\n    tag_4:\n        /* \"9Array.sol\":511:595  function setter(uint index,uint value) public{\r... */\n      pop\n      tag_5\n      0x4\n      dup1\n      calldatasize\n      sub\n        /* \"--CODEGEN--\":13:15   */\n      0x40\n        /* \"--CODEGEN--\":8:11   */\n      dup2\n        /* \"--CODEGEN--\":5:16   */\n      lt\n        /* \"--CODEGEN--\":2:4   */\n      iszero\n      tag_6\n      jumpi\n        /* \"--CODEGEN--\":29:30   */\n      0x0\n        /* \"--CODEGEN--\":26:27   */\n      dup1\n        /* \"--CODEGEN--\":19:31   */\n      revert\n        /* \"--CODEGEN--\":2:4   */\n    tag_6:\n        /* \"9Array.sol\":511:595  function setter(uint index,uint value) public{\r... */\n      dup2\n      add\n      swap1\n      dup1\n      dup1\n      calldataload\n      swap1\n      0x20\n      add\n      swap1\n      swap3\n      swap2\n      swap1\n      dup1\n      calldataload\n      swap1\n      0x20\n      add\n      swap1\n      swap3\n      swap2\n      swap1\n      pop\n      pop\n      pop\n      jump(tag_7)\n    tag_5:\n      stop\n        /* \"9Array.sol\":465:502  uint [4] public myArray=[10,20,30,40] */\n    tag_3:\n      callvalue\n        /* \"--CODEGEN--\":8:17   */\n      dup1\n        /* \"--CODEGEN--\":5:7   */\n      iszero\n      tag_8\n      jumpi\n        /* \"--CODEGEN--\":30:31   */\n      0x0\n        /* \"--CODEGEN--\":27:28   */\n      dup1\n        /* \"--CODEGEN--\":20:32   */\n      revert\n        /* \"--CODEGEN--\":5:7   */\n    tag_8:\n        /* \"9Array.sol\":465:502  uint [4] public myArray=[10,20,30,40] */\n      pop\n      tag_9\n      0x4\n      dup1\n      calldatasize\n      sub\n        /* \"--CODEGEN--\":13:15   */\n      0x20\n        /* \"--CODEGEN--\":8:11   */\n      dup2\n        /* \"--CODEGEN--\":5:16   */\n      lt\n        /* \"--CODEGEN--\":2:4   */\n      iszero\n      tag_10\n      jumpi\n        /* \"--CODEGEN--\":29:30   */\n      0x0\n        /* \"--CODEGEN--\":26:27   */\n      dup1\n        /* \"--CODEGEN--\":19:31   */\n      revert\n        /* \"--CODEGEN--\":2:4   */\n    tag_10:\n        /* \"9Array.sol\":465:502  uint [4] public myArray=[10,20,30,40] */\n      dup2\n      add\n      swap1\n      dup1\n      dup1\n      calldataload\n      swap1\n      0x20\n      add\n      swap1\n      swap3\n      swap2\n      swap1\n      pop\n      pop\n      pop\n      jump(tag_11)\n    tag_9:\n      mload(0x40)\n      dup1\n      dup3\n      dup2\n      mstore\n      0x20\n      add\n      swap2\n      pop\n      pop\n      mload(0x40)\n      dup1\n      swap2\n      sub\n      swap1\n      return\n        /* \"9Array.sol\":511:595  function setter(uint index,uint value) public{\r... */\n    tag_7:\n        /* \"9Array.sol\":582:587  value */\n      dup1\n        /* \"9Array.sol\":567:574  myArray */\n      0x0\n        /* \"9Array.sol\":575:580  index */\n      dup4\n        /* \"9Array.sol\":567:581  myArray[index] */\n      0x4\n      dup2\n      lt\n      iszero\n      iszero\n      tag_13\n      jumpi\n      invalid\n    tag_13:\n      add\n        /* \"9Array.sol\":567:587  myArray[index]=value */\n      dup2\n      swap1\n      sstore\n      pop\n        /* \"9Array.sol\":511:595  function setter(uint index,uint value) public{\r... */\n      pop\n      pop\n      jump\t// out\n        /* \"9Array.sol\":465:502  uint [4] public myArray=[10,20,30,40] */\n    tag_11:\n      0x0\n      dup2\n      0x4\n      dup2\n      lt\n      iszero\n      iszero\n      tag_15\n      jumpi\n      invalid\n    tag_15:\n      add\n      0x0\n      swap2\n      pop\n      swap1\n      pop\n      sload\n      dup2\n      jump\t// out\n\n    auxdata: 0xa165627a7a72305820b9319a6159b6fce63a4e8fccb83576342d6948a4dac01e43ab5e10c65e5e7fbe0029\n}\n",
				"bytecode": {
					"linkReferences": {},
					"object": "6080604052608060405190810160405280600a60ff168152602001601460ff168152602001601e60ff168152602001602860ff168152506000906004610046929190610059565b5034801561005357600080fd5b506100c3565b826004810192821561008d579160200282015b8281111561008c578251829060ff1690559160200191906001019061006c565b5b50905061009a919061009e565b5090565b6100c091905b808211156100bc5760008160009055506001016100a4565b5090565b90565b610144806100d26000396000f3fe60806040526004361061004c576000357c0100000000000000000000000000000000000000000000000000000000900463ffffffff1680635298f36d14610051578063cc3e57d914610096575b600080fd5b34801561005d57600080fd5b506100946004803603604081101561007457600080fd5b8101908080359060200190929190803590602001909291905050506100e5565b005b3480156100a257600080fd5b506100cf600480360360208110156100b957600080fd5b81019080803590602001909291905050506100fe565b6040518082815260200191505060405180910390f35b806000836004811015156100f557fe5b01819055505050565b60008160048110151561010d57fe5b01600091509050548156fea165627a7a72305820b9319a6159b6fce63a4e8fccb83576342d6948a4dac01e43ab5e10c65e5e7fbe0029",
					"opcodes": "PUSH1 0x80 PUSH1 0x40 MSTORE PUSH1 0x80 PUSH1 0x40 MLOAD SWAP1 DUP2 ADD PUSH1 0x40 MSTORE DUP1 PUSH1 0xA PUSH1 0xFF AND DUP2 MSTORE PUSH1 0x20 ADD PUSH1 0x14 PUSH1 0xFF AND DUP2 MSTORE PUSH1 0x20 ADD PUSH1 0x1E PUSH1 0xFF AND DUP2 MSTORE PUSH1 0x20 ADD PUSH1 0x28 PUSH1 0xFF AND DUP2 MSTORE POP PUSH1 0x0 SWAP1 PUSH1 0x4 PUSH2 0x46 SWAP3 SWAP2 SWAP1 PUSH2 0x59 JUMP JUMPDEST POP CALLVALUE DUP1 ISZERO PUSH2 0x53 JUMPI PUSH1 0x0 DUP1 REVERT JUMPDEST POP PUSH2 0xC3 JUMP JUMPDEST DUP3 PUSH1 0x4 DUP2 ADD SWAP3 DUP3 ISZERO PUSH2 0x8D JUMPI SWAP2 PUSH1 0x20 MUL DUP3 ADD JUMPDEST DUP3 DUP2 GT ISZERO PUSH2 0x8C JUMPI DUP3 MLOAD DUP3 SWAP1 PUSH1 0xFF AND SWAP1 SSTORE SWAP2 PUSH1 0x20 ADD SWAP2 SWAP1 PUSH1 0x1 ADD SWAP1 PUSH2 0x6C JUMP JUMPDEST JUMPDEST POP SWAP1 POP PUSH2 0x9A SWAP2 SWAP1 PUSH2 0x9E JUMP JUMPDEST POP SWAP1 JUMP JUMPDEST PUSH2 0xC0 SWAP2 SWAP1 JUMPDEST DUP1 DUP3 GT ISZERO PUSH2 0xBC JUMPI PUSH1 0x0 DUP2 PUSH1 0x0 SWAP1 SSTORE POP PUSH1 0x1 ADD PUSH2 0xA4 JUMP JUMPDEST POP SWAP1 JUMP JUMPDEST SWAP1 JUMP JUMPDEST PUSH2 0x144 DUP1 PUSH2 0xD2 PUSH1 0x0 CODECOPY PUSH1 0x0 RETURN INVALID PUSH1 0x80 PUSH1 0x40 MSTORE PUSH1 0x4 CALLDATASIZE LT PUSH2 0x4C JUMPI PUSH1 0x0 CALLDATALOAD PUSH29 0x100000000000000000000000000000000000000000000000000000000 SWAP1 DIV PUSH4 0xFFFFFFFF AND DUP1 PUSH4 0x5298F36D EQ PUSH2 0x51 JUMPI DUP1 PUSH4 0xCC3E57D9 EQ PUSH2 0x96 JUMPI JUMPDEST PUSH1 0x0 DUP1 REVERT JUMPDEST CALLVALUE DUP1 ISZERO PUSH2 0x5D JUMPI PUSH1 0x0 DUP1 REVERT JUMPDEST POP PUSH2 0x94 PUSH1 0x4 DUP1 CALLDATASIZE SUB PUSH1 0x40 DUP2 LT ISZERO PUSH2 0x74 JUMPI PUSH1 0x0 DUP1 REVERT JUMPDEST DUP2 ADD SWAP1 DUP1 DUP1 CALLDATALOAD SWAP1 PUSH1 0x20 ADD SWAP1 SWAP3 SWAP2 SWAP1 DUP1 CALLDATALOAD SWAP1 PUSH1 0x20 ADD SWAP1 SWAP3 SWAP2 SWAP1 POP POP POP PUSH2 0xE5 JUMP JUMPDEST STOP JUMPDEST CALLVALUE DUP1 ISZERO PUSH2 0xA2 JUMPI PUSH1 0x0 DUP1 REVERT JUMPDEST POP PUSH2 0xCF PUSH1 0x4 DUP1 CALLDATASIZE SUB PUSH1 0x20 DUP2 LT ISZERO PUSH2 0xB9 JUMPI PUSH1 0x0 DUP1 REVERT JUMPDEST DUP2 ADD SWAP1 DUP1 DUP1 CALLDATALOAD SWAP1 PUSH1 0x20 ADD SWAP1 SWAP3 SWAP2 SWAP1 POP POP POP PUSH2 0xFE JUMP JUMPDEST PUSH1 0x40 MLOAD DUP1 DUP3 DUP2 MSTORE PUSH1 0x20 ADD SWAP2 POP POP PUSH1 0x40 MLOAD DUP1 SWAP2 SUB SWAP1 RETURN JUMPDEST DUP1 PUSH1 0x0 DUP4 PUSH1 0x4 DUP2 LT ISZERO ISZERO PUSH2 0xF5 JUMPI INVALID JUMPDEST ADD DUP2 SWAP1 SSTORE POP POP POP JUMP JUMPDEST PUSH1 0x0 DUP2 PUSH1 0x4 DUP2 LT ISZERO ISZERO PUSH2 0x10D JUMPI INVALID JUMPDEST ADD PUSH1 0x0 SWAP2 POP SWAP1 POP SLOAD DUP2 JUMP INVALID LOG1 PUSH6 0x627A7A723058 KECCAK256 0xb9 BALANCE SWAP11 PUSH2 0x59B6 0xfc 0xe6 GASPRICE 0x4e DUP16 0xcc 0xb8 CALLDATALOAD PUSH23 0x342D6948A4DAC01E43AB5E10C65E5E7FBE002900000000 "
				},
				"gasEstimates": {
					"creation": {
						"codeDepositCost": "64800",
						"executionCost": "infinite",
						"totalCost": "infinite"
					},
					"external": {
						"myArray(uint256)": "546",
						"setter(uint256,uint256)": "20295"
					}
				},
				"methodIdentifiers": {
					"myArray(uint256)": "cc3e57d9",
					"setter(uint256,uint256)": "5298f36d"
				}
			},
			"userdoc": {
				"methods": {}
			}
		}
	}
}