{
	"10byteArray.sol": {
		"Array": {
			"abi": [
				{
					"constant": true,
					"inputs": [],
					"name": "b",
					"outputs": [
						{
							"name": "",
							"type": "bytes3"
						}
					],
					"payable": false,
					"stateMutability": "view",
					"type": "function"
				}
			],
			"devdoc": {
				"methods": {}
			},
			"evm": {
				"assembly": "    /* \"10byteArray.sol\":246:288  contract Array{\r... */\n  mstore(0x40, 0x80)\n  callvalue\n    /* \"--CODEGEN--\":8:17   */\n  dup1\n    /* \"--CODEGEN--\":5:7   */\n  iszero\n  tag_1\n  jumpi\n    /* \"--CODEGEN--\":30:31   */\n  0x0\n    /* \"--CODEGEN--\":27:28   */\n  dup1\n    /* \"--CODEGEN--\":20:32   */\n  revert\n    /* \"--CODEGEN--\":5:7   */\ntag_1:\n    /* \"10byteArray.sol\":246:288  contract Array{\r... */\n  pop\n  dataSize(sub_0)\n  dup1\n  dataOffset(sub_0)\n  0x0\n  codecopy\n  0x0\n  return\nstop\n\nsub_0: assembly {\n        /* \"10byteArray.sol\":246:288  contract Array{\r... */\n      mstore(0x40, 0x80)\n      jumpi(tag_1, lt(calldatasize, 0x4))\n      calldataload(0x0)\n      0x100000000000000000000000000000000000000000000000000000000\n      swap1\n      div\n      0xffffffff\n      and\n      dup1\n      0x4df7e3d0\n      eq\n      tag_2\n      jumpi\n    tag_1:\n      0x0\n      dup1\n      revert\n        /* \"10byteArray.sol\":267:282  bytes3 public b */\n    tag_2:\n      callvalue\n        /* \"--CODEGEN--\":8:17   */\n      dup1\n        /* \"--CODEGEN--\":5:7   */\n      iszero\n      tag_3\n      jumpi\n        /* \"--CODEGEN--\":30:31   */\n      0x0\n        /* \"--CODEGEN--\":27:28   */\n      dup1\n        /* \"--CODEGEN--\":20:32   */\n      revert\n        /* \"--CODEGEN--\":5:7   */\n    tag_3:\n        /* \"10byteArray.sol\":267:282  bytes3 public b */\n      pop\n      tag_4\n      jump(tag_5)\n    tag_4:\n      mload(0x40)\n      dup1\n      dup3\n      not(0xffffffffffffffffffffffffffffffffffffffffffffffffffffffffff)\n      and\n      not(0xffffffffffffffffffffffffffffffffffffffffffffffffffffffffff)\n      and\n      dup2\n      mstore\n      0x20\n      add\n      swap2\n      pop\n      pop\n      mload(0x40)\n      dup1\n      swap2\n      sub\n      swap1\n      return\n    tag_5:\n      0x0\n      dup1\n      swap1\n      sload\n      swap1\n      0x100\n      exp\n      swap1\n      div\n      0x10000000000000000000000000000000000000000000000000000000000\n      mul\n      dup2\n      jump\t// out\n\n    auxdata: 0xa165627a7a72305820e0cc57c00580460a983edc1e4d3ac476e0d25857146703ced2ed776031f671130029\n}\n",
				"bytecode": {
					"linkReferences": {},
					"object": "608060405234801561001057600080fd5b50610107806100206000396000f3fe608060405260043610603f576000357c0100000000000000000000000000000000000000000000000000000000900463ffffffff1680634df7e3d0146044575b600080fd5b348015604f57600080fd5b50605660ac565b60405180827cffffffffffffffffffffffffffffffffffffffffffffffffffffffffff19167cffffffffffffffffffffffffffffffffffffffffffffffffffffffffff1916815260200191505060405180910390f35b6000809054906101000a90047d010000000000000000000000000000000000000000000000000000000000028156fea165627a7a72305820e0cc57c00580460a983edc1e4d3ac476e0d25857146703ced2ed776031f671130029",
					"opcodes": "PUSH1 0x80 PUSH1 0x40 MSTORE CALLVALUE DUP1 ISZERO PUSH2 0x10 JUMPI PUSH1 0x0 DUP1 REVERT JUMPDEST POP PUSH2 0x107 DUP1 PUSH2 0x20 PUSH1 0x0 CODECOPY PUSH1 0x0 RETURN INVALID PUSH1 0x80 PUSH1 0x40 MSTORE PUSH1 0x4 CALLDATASIZE LT PUSH1 0x3F JUMPI PUSH1 0x0 CALLDATALOAD PUSH29 0x100000000000000000000000000000000000000000000000000000000 SWAP1 DIV PUSH4 0xFFFFFFFF AND DUP1 PUSH4 0x4DF7E3D0 EQ PUSH1 0x44 JUMPI JUMPDEST PUSH1 0x0 DUP1 REVERT JUMPDEST CALLVALUE DUP1 ISZERO PUSH1 0x4F JUMPI PUSH1 0x0 DUP1 REVERT JUMPDEST POP PUSH1 0x56 PUSH1 0xAC JUMP JUMPDEST PUSH1 0x40 MLOAD DUP1 DUP3 PUSH29 0xFFFFFFFFFFFFFFFFFFFFFFFFFFFFFFFFFFFFFFFFFFFFFFFFFFFFFFFFFF NOT AND PUSH29 0xFFFFFFFFFFFFFFFFFFFFFFFFFFFFFFFFFFFFFFFFFFFFFFFFFFFFFFFFFF NOT AND DUP2 MSTORE PUSH1 0x20 ADD SWAP2 POP POP PUSH1 0x40 MLOAD DUP1 SWAP2 SUB SWAP1 RETURN JUMPDEST PUSH1 0x0 DUP1 SWAP1 SLOAD SWAP1 PUSH2 0x100 EXP SWAP1 DIV PUSH30 0x10000000000000000000000000000000000000000000000000000000000 MUL DUP2 JUMP INVALID LOG1 PUSH6 0x627A7A723058 KECCAK256 0xe0 0xcc JUMPI 0xc0 SDIV DUP1 0x46 EXP SWAP9 RETURNDATACOPY 0xdc 0x1e 0x4d GASPRICE 0xc4 PUSH23 0xE0D25857146703CED2ED776031F6711300290000000000 "
				},
				"gasEstimates": {
					"creation": {
						"codeDepositCost": "52600",
						"executionCost": "105",
						"totalCost": "52705"
					},
					"external": {
						"b()": "450"
					}
				},
				"methodIdentifiers": {
					"b()": "4df7e3d0"
				}
			},
			"userdoc": {
				"methods": {}
			}
		}
	}
}