{
	"8overflowUnderFlow.sol": {
		"local": {
			"abi": [
				{
					"constant": false,
					"inputs": [],
					"name": "setter",
					"outputs": [],
					"payable": false,
					"stateMutability": "nonpayable",
					"type": "function"
				}
			],
			"devdoc": {
				"methods": {}
			},
			"evm": {
				"assembly": "    /* \"8overflowUnderFlow.sol\":347:439  contract local{\r... */\n  mstore(0x40, 0x80)\n    /* \"8overflowUnderFlow.sol\":380:383  255 */\n  0xff\n    /* \"8overflowUnderFlow.sol\":368:383  uint8 money=255 */\n  0x0\n  dup1\n  0x100\n  exp\n  dup2\n  sload\n  dup2\n  0xff\n  mul\n  not\n  and\n  swap1\n  dup4\n  0xff\n  and\n  mul\n  or\n  swap1\n  sstore\n  pop\n    /* \"8overflowUnderFlow.sol\":347:439  contract local{\r... */\n  callvalue\n    /* \"--CODEGEN--\":8:17   */\n  dup1\n    /* \"--CODEGEN--\":5:7   */\n  iszero\n  tag_1\n  jumpi\n    /* \"--CODEGEN--\":30:31   */\n  0x0\n    /* \"--CODEGEN--\":27:28   */\n  dup1\n    /* \"--CODEGEN--\":20:32   */\n  revert\n    /* \"--CODEGEN--\":5:7   */\ntag_1:\n    /* \"8overflowUnderFlow.sol\":347:439  contract local{\r... */\n  pop\n  dataSize(sub_0)\n  dup1\n  dataOffset(sub_0)\n  0x0\n  codecopy\n  0x0\n  return\nstop\n\nsub_0: assembly {\n        /* \"8overflowUnderFlow.sol\":347:439  contract local{\r... */\n      mstore(0x40, 0x80)\n      jumpi(tag_1, lt(calldatasize, 0x4))\n      calldataload(0x0)\n      0x100000000000000000000000000000000000000000000000000000000\n      swap1\n      div\n      0xffffffff\n      and\n      dup1\n      0x3f3108f7\n      eq\n      tag_2\n      jumpi\n    tag_1:\n      0x0\n      dup1\n      revert\n        /* \"8overflowUnderFlow.sol\":394:436  function setter() public{\r... */\n    tag_2:\n      callvalue\n        /* \"--CODEGEN--\":8:17   */\n      dup1\n        /* \"--CODEGEN--\":5:7   */\n      iszero\n      tag_3\n      jumpi\n        /* \"--CODEGEN--\":30:31   */\n      0x0\n        /* \"--CODEGEN--\":27:28   */\n      dup1\n        /* \"--CODEGEN--\":20:32   */\n      revert\n        /* \"--CODEGEN--\":5:7   */\n    tag_3:\n        /* \"8overflowUnderFlow.sol\":394:436  function setter() public{\r... */\n      pop\n      tag_4\n      jump(tag_5)\n    tag_4:\n      stop\n    tag_5:\n      jump\t// out\n\n    auxdata: 0xa165627a7a72305820828cf4feaae731a917f063f5a45e8dfdbcaef4cf3f8b0b12c7f80e378c0749ee0029\n}\n",
				"bytecode": {
					"linkReferences": {},
					"object": "608060405260ff6000806101000a81548160ff021916908360ff160217905550348015602a57600080fd5b506086806100396000396000f3fe608060405260043610603f576000357c0100000000000000000000000000000000000000000000000000000000900463ffffffff1680633f3108f7146044575b600080fd5b348015604f57600080fd5b5060566058565b005b56fea165627a7a72305820828cf4feaae731a917f063f5a45e8dfdbcaef4cf3f8b0b12c7f80e378c0749ee0029",
					"opcodes": "PUSH1 0x80 PUSH1 0x40 MSTORE PUSH1 0xFF PUSH1 0x0 DUP1 PUSH2 0x100 EXP DUP2 SLOAD DUP2 PUSH1 0xFF MUL NOT AND SWAP1 DUP4 PUSH1 0xFF AND MUL OR SWAP1 SSTORE POP CALLVALUE DUP1 ISZERO PUSH1 0x2A JUMPI PUSH1 0x0 DUP1 REVERT JUMPDEST POP PUSH1 0x86 DUP1 PUSH2 0x39 PUSH1 0x0 CODECOPY PUSH1 0x0 RETURN INVALID PUSH1 0x80 PUSH1 0x40 MSTORE PUSH1 0x4 CALLDATASIZE LT PUSH1 0x3F JUMPI PUSH1 0x0 CALLDATALOAD PUSH29 0x100000000000000000000000000000000000000000000000000000000 SWAP1 DIV PUSH4 0xFFFFFFFF AND DUP1 PUSH4 0x3F3108F7 EQ PUSH1 0x44 JUMPI JUMPDEST PUSH1 0x0 DUP1 REVERT JUMPDEST CALLVALUE DUP1 ISZERO PUSH1 0x4F JUMPI PUSH1 0x0 DUP1 REVERT JUMPDEST POP PUSH1 0x56 PUSH1 0x58 JUMP JUMPDEST STOP JUMPDEST JUMP INVALID LOG1 PUSH6 0x627A7A723058 KECCAK256 DUP3 DUP13 DELEGATECALL INVALID 0xaa 0xe7 BALANCE 0xa9 OR CREATE PUSH4 0xF5A45E8D REVERT 0xbc 0xae DELEGATECALL 0xcf EXTCODEHASH DUP12 SIGNEXTEND SLT 0xc7 0xf8 0xe CALLDATACOPY DUP13 SMOD 0x49 0xee STOP 0x29 "
				},
				"gasEstimates": {
					"creation": {
						"codeDepositCost": "26800",
						"executionCost": "20348",
						"totalCost": "47148"
					},
					"external": {
						"setter()": "133"
					}
				},
				"methodIdentifiers": {
					"setter()": "3f3108f7"
				}
			},
			"userdoc": {
				"methods": {}
			}
		}
	}
}