{
	"10byteArray.sol": {
		"Array": {
			"abi": [
				{
					"constant": true,
					"inputs": [],
					"name": "b2",
					"outputs": [
						{
							"name": "",
							"type": "bytes2"
						}
					],
					"payable": false,
					"stateMutability": "view",
					"type": "function"
				},
				{
					"constant": true,
					"inputs": [],
					"name": "b3",
					"outputs": [
						{
							"name": "",
							"type": "bytes3"
						}
					],
					"payable": false,
					"stateMutability": "view",
					"type": "function"
				}
			],
			"devdoc": {
				"methods": {}
			},
			"evm": {
				"assembly": "    /* \"10byteArray.sol\":246:327  contract Array{\r... */\n  mstore(0x40, 0x80)\n  callvalue\n    /* \"--CODEGEN--\":8:17   */\n  dup1\n    /* \"--CODEGEN--\":5:7   */\n  iszero\n  tag_1\n  jumpi\n    /* \"--CODEGEN--\":30:31   */\n  0x0\n    /* \"--CODEGEN--\":27:28   */\n  dup1\n    /* \"--CODEGEN--\":20:32   */\n  revert\n    /* \"--CODEGEN--\":5:7   */\ntag_1:\n    /* \"10byteArray.sol\":246:327  contract Array{\r... */\n  pop\n  dataSize(sub_0)\n  dup1\n  dataOffset(sub_0)\n  0x0\n  codecopy\n  0x0\n  return\nstop\n\nsub_0: assembly {\n        /* \"10byteArray.sol\":246:327  contract Array{\r... */\n      mstore(0x40, 0x80)\n      jumpi(tag_1, lt(calldatasize, 0x4))\n      calldataload(0x0)\n      0x100000000000000000000000000000000000000000000000000000000\n      swap1\n      div\n      0xffffffff\n      and\n      dup1\n      0xadd6ef2\n      eq\n      tag_2\n      jumpi\n      dup1\n      0xe9b61909\n      eq\n      tag_3\n      jumpi\n    tag_1:\n      0x0\n      dup1\n      revert\n        /* \"10byteArray.sol\":267:283  bytes2 public b2 */\n    tag_2:\n      callvalue\n        /* \"--CODEGEN--\":8:17   */\n      dup1\n        /* \"--CODEGEN--\":5:7   */\n      iszero\n      tag_4\n      jumpi\n        /* \"--CODEGEN--\":30:31   */\n      0x0\n        /* \"--CODEGEN--\":27:28   */\n      dup1\n        /* \"--CODEGEN--\":20:32   */\n      revert\n        /* \"--CODEGEN--\":5:7   */\n    tag_4:\n        /* \"10byteArray.sol\":267:283  bytes2 public b2 */\n      pop\n      tag_5\n      jump(tag_6)\n    tag_5:\n      mload(0x40)\n      dup1\n      dup3\n      not(0xffffffffffffffffffffffffffffffffffffffffffffffffffffffffffff)\n      and\n      not(0xffffffffffffffffffffffffffffffffffffffffffffffffffffffffffff)\n      and\n      dup2\n      mstore\n      0x20\n      add\n      swap2\n      pop\n      pop\n      mload(0x40)\n      dup1\n      swap2\n      sub\n      swap1\n      return\n        /* \"10byteArray.sol\":305:321  bytes3 public b3 */\n    tag_3:\n      callvalue\n        /* \"--CODEGEN--\":8:17   */\n      dup1\n        /* \"--CODEGEN--\":5:7   */\n      iszero\n      tag_7\n      jumpi\n        /* \"--CODEGEN--\":30:31   */\n      0x0\n        /* \"--CODEGEN--\":27:28   */\n      dup1\n        /* \"--CODEGEN--\":20:32   */\n      revert\n        /* \"--CODEGEN--\":5:7   */\n    tag_7:\n        /* \"10byteArray.sol\":305:321  bytes3 public b3 */\n      pop\n      tag_8\n      jump(tag_9)\n    tag_8:\n      mload(0x40)\n      dup1\n      dup3\n      not(0xffffffffffffffffffffffffffffffffffffffffffffffffffffffffff)\n      and\n      not(0xffffffffffffffffffffffffffffffffffffffffffffffffffffffffff)\n      and\n      dup2\n      mstore\n      0x20\n      add\n      swap2\n      pop\n      pop\n      mload(0x40)\n      dup1\n      swap2\n      sub\n      swap1\n      return\n        /* \"10byteArray.sol\":267:283  bytes2 public b2 */\n    tag_6:\n      0x0\n      dup1\n      swap1\n      sload\n      swap1\n      0x100\n      exp\n      swap1\n      div\n      0x1000000000000000000000000000000000000000000000000000000000000\n      mul\n      dup2\n      jump\t// out\n        /* \"10byteArray.sol\":305:321  bytes3 public b3 */\n    tag_9:\n      0x0\n      0x2\n      swap1\n      sload\n      swap1\n      0x100\n      exp\n      swap1\n      div\n      0x10000000000000000000000000000000000000000000000000000000000\n      mul\n      dup2\n      jump\t// out\n\n    auxdata: 0xa165627a7a723058205e47af40d726b389622c8da854f5c23d54238b7b8d646798953b5dd269ceba650029\n}\n",
				"bytecode": {
					"linkReferences": {},
					"object": "608060405234801561001057600080fd5b506101b5806100206000396000f3fe60806040526004361061004c576000357c0100000000000000000000000000000000000000000000000000000000900463ffffffff1680630add6ef214610051578063e9b61909146100be575b600080fd5b34801561005d57600080fd5b50610066610129565b60405180827dffffffffffffffffffffffffffffffffffffffffffffffffffffffffffff19167dffffffffffffffffffffffffffffffffffffffffffffffffffffffffffff1916815260200191505060405180910390f35b3480156100ca57600080fd5b506100d3610159565b60405180827cffffffffffffffffffffffffffffffffffffffffffffffffffffffffff19167cffffffffffffffffffffffffffffffffffffffffffffffffffffffffff1916815260200191505060405180910390f35b6000809054906101000a90047e010000000000000000000000000000000000000000000000000000000000000281565b600060029054906101000a90047d010000000000000000000000000000000000000000000000000000000000028156fea165627a7a723058205e47af40d726b389622c8da854f5c23d54238b7b8d646798953b5dd269ceba650029",
					"opcodes": "PUSH1 0x80 PUSH1 0x40 MSTORE CALLVALUE DUP1 ISZERO PUSH2 0x10 JUMPI PUSH1 0x0 DUP1 REVERT JUMPDEST POP PUSH2 0x1B5 DUP1 PUSH2 0x20 PUSH1 0x0 CODECOPY PUSH1 0x0 RETURN INVALID PUSH1 0x80 PUSH1 0x40 MSTORE PUSH1 0x4 CALLDATASIZE LT PUSH2 0x4C JUMPI PUSH1 0x0 CALLDATALOAD PUSH29 0x100000000000000000000000000000000000000000000000000000000 SWAP1 DIV PUSH4 0xFFFFFFFF AND DUP1 PUSH4 0xADD6EF2 EQ PUSH2 0x51 JUMPI DUP1 PUSH4 0xE9B61909 EQ PUSH2 0xBE JUMPI JUMPDEST PUSH1 0x0 DUP1 REVERT JUMPDEST CALLVALUE DUP1 ISZERO PUSH2 0x5D JUMPI PUSH1 0x0 DUP1 REVERT JUMPDEST POP PUSH2 0x66 PUSH2 0x129 JUMP JUMPDEST PUSH1 0x40 MLOAD DUP1 DUP3 PUSH30 0xFFFFFFFFFFFFFFFFFFFFFFFFFFFFFFFFFFFFFFFFFFFFFFFFFFFFFFFFFFFF NOT AND PUSH30 0xFFFFFFFFFFFFFFFFFFFFFFFFFFFFFFFFFFFFFFFFFFFFFFFFFFFFFFFFFFFF NOT AND DUP2 MSTORE PUSH1 0x20 ADD SWAP2 POP POP PUSH1 0x40 MLOAD DUP1 SWAP2 SUB SWAP1 RETURN JUMPDEST CALLVALUE DUP1 ISZERO PUSH2 0xCA JUMPI PUSH1 0x0 DUP1 REVERT JUMPDEST POP PUSH2 0xD3 PUSH2 0x159 JUMP JUMPDEST PUSH1 0x40 MLOAD DUP1 DUP3 PUSH29 0xFFFFFFFFFFFFFFFFFFFFFFFFFFFFFFFFFFFFFFFFFFFFFFFFFFFFFFFFFF NOT AND PUSH29 0xFFFFFFFFFFFFFFFFFFFFFFFFFFFFFFFFFFFFFFFFFFFFFFFFFFFFFFFFFF NOT AND DUP2 MSTORE PUSH1 0x20 ADD SWAP2 POP POP PUSH1 0x40 MLOAD DUP1 SWAP2 SUB SWAP1 RETURN JUMPDEST PUSH1 0x0 DUP1 SWAP1 SLOAD SWAP1 PUSH2 0x100 EXP SWAP1 DIV PUSH31 0x1000000000000000000000000000000000000000000000000000000000000 MUL DUP2 JUMP JUMPDEST PUSH1 0x0 PUSH1 0x2 SWAP1 SLOAD SWAP1 PUSH2 0x100 EXP SWAP1 DIV PUSH30 0x10000000000000000000000000000000000000000000000000000000000 MUL DUP2 JUMP INVALID LOG1 PUSH6 0x627A7A723058 KECCAK256 0x5e 0x47 0xaf BLOCKHASH 0xd7 0x26 0xb3 DUP10 PUSH3 0x2C8DA8 SLOAD CREATE2 0xc2 RETURNDATASIZE SLOAD 0x23 DUP12 PUSH28 0x8D646798953B5DD269CEBA6500290000000000000000000000000000 "
				},
				"gasEstimates": {
					"creation": {
						"codeDepositCost": "87400",
						"executionCost": "135",
						"totalCost": "87535"
					},
					"external": {
						"b2()": "450",
						"b3()": "522"
					}
				},
				"methodIdentifiers": {
					"b2()": "0add6ef2",
					"b3()": "e9b61909"
				}
			},
			"userdoc": {
				"methods": {}
			}
		}
	}
}